:0400000500000A816C
:020000040000FA
:1000000000040020810A000015070000610A0000BA
:100010001F07000029070000330700000000000050
:10002000000000000000000000000000A50A000021
:100030003D070000000000004707000051070000D6
:100040005B070000650700006F07000079070000EC
:10005000830700008D07000097070000A10700003C
:10006000AB070000B5070000BF070000C90700008C
:10007000D3070000DD070000E7070000F1070000DC
:10008000FB070000050800000F0800001908000029
:10009000230800002D080000370800004108000078
:1000A0004B080000550800005F08000069080000C8
:1000B000730800007D080000870800009108000018
:1000C0009B080000A5080000AF080000B908000068
:1000D000C3080000CD080000D7080000E1080000B8
:1000E000EB080000F5080000FF0800000909000007
:1000F000130900001D090000270900003109000054
:100100003B0900001FB500F003F88DE80F001FBD8C
:1001100000F0ACBC40F6FC7108684FF01022401CA7
:1001200008D00868401C09D00868401C04D0086842
:1001300000F037BA9069F5E79069F9E7704770B554
:100140000B46010B184400F6FF70040B4FF0805073
:100150000022090303692403406943431D1B104621
:1001600000F048FA29462046BDE8704000F042BA47
:10017000F0B54FF6FF734FF4B4751A466E1E11E0DA
:10018000A94201D3344600E00C46091B30F8027B3B
:10019000641E3B441A44F9D19CB204EB134394B25D
:1001A00004EB12420029EBD198B200EB134002EBB2
:1001B000124140EA0140F0BDF34992B00446D1E952
:1001C0000001CDE91001FF224021684600F0F4FB58
:1001D00094E80F008DE80F00684610A902E004C8FB
:1001E00041F8042D8842FAD110216846FFF7C0FF7C
:1001F0001090AA208DF8440000F099F9FFF78AFFCB
:1002000040F6FC7420684FF01025401C0FD0206889
:1002100010226946803000F078F92068401C08D030
:100220002068082210A900F070F900F061F9A869AF
:10023000EEE7A869F5E74FF080500369406940F6A2
:10024000FC71434308684FF01022401C06D0086838
:1002500000F58050834203D2092070479069F7E788
:100260000868401C04D00868401C03D00020704778
:100270009069F9E70420704770B504460068C34DE3
:10028000072876D2DFE800F033041929631E250021
:10029000D4E9026564682946304600F062F92A46CE
:1002A0002146304600F031F9AA002146304600F0E0
:1002B00057FB002800D0032070BD00F009FC4FF46C
:1002C000805007E0201D00F040F90028F4D100F034
:1002D000FFFB60682860002070BD241D94E80700C3
:1002E000920000F03DFB0028F6D00E2070BDFFF715
:1002F000A2FF0028FAD1D4E901034FF0805100EBAE
:10030000830208694D69684382420ED840F6F8704E
:1003100005684FF010226D1C09D0056805EB8305B8
:100320000B6949694B439D4203D9092070BD55694A
:10033000F4E70168491C03D00068401C02D003E0C8
:100340005069FAE70F2070BD2046FFF735FFFFF731
:1003500072FF0028F7D1201D00F0F7F80028F2D135
:1003600060680028F0D100F0E2F8FFF7D3FE00F05B
:10037000BFF8072070BD10B50C46182802D0012028
:10038000086010BD2068FFF777FF206010BD41684E
:10039000054609B1012700E0002740F6F8742068FF
:1003A0004FF01026401C2BD02068AA68920000F065
:1003B000D7FA38B3A86881002068401C27D020688D
:1003C000FFF7BDFED7B12068401C22D026684FF051
:1003D0008050AC686D68016942695143A9420DD9EA
:1003E000016940694143A14208D92146304600F0E5
:1003F000B8F822462946304600F087F800F078F831
:100400007069D2E700F093F8FFF784FEF6E77069B1
:10041000D6E77669DBE740F6FC7420684FF01026DB
:10042000401C23D02068401C0CD02068401C1FD0EA
:100430002568206805F18005401C1BD027683879A5
:10044000AA2819D040F6F8700168491C42D001680A
:10045000491C45D00168491C3ED001680968491C07
:100460003ED00168491C39D000683EE0B069DAE747
:10047000B569DEE7B769E2E710212846FFF778FEA5
:100480003968814222D12068401C05D0D4F8001080
:1004900001F18002C03107E0B169F9E730B108CA63
:1004A00051F8040D984201D1012000E000208A4259
:1004B000F4D158B1286810B1042803D0FEE72846CB
:1004C000FFF765FF3149686808600EE0FFF722FE1C
:1004D00000F00EF87169BBE77169BFE7706904E06D
:1004E0004FF480500168491C01D000F0CBFAFEE7C0
:1004F000BFF34F8F26480168264A01F4E06111439B
:100500000160BFF34F8F00BFFDE72DE9F0411746B3
:100510000D460646002406E03046296800F054F8EF
:10052000641C2D1D361DBC42F6D3BDE8F08140F69B
:10053000FC700168491C04D0D0F800004FF48051D1
:10054000FDE54FF010208069F8E74FF080510A690F
:10055000496900684A43824201D810207047002050
:10056000704770B50C4605464FF4806608E0284693
:1005700000F017F8B44205D3A4F5806405F5805562
:10058000002CF4D170BD0000F40A0000000000202F
:100590000CED00E00400FA05144801680029FCD0C5
:1005A0007047134A0221116010490B68002BFCD0E0
:1005B0000F4B1B1D186008680028FCD0002010603D
:1005C00008680028FCD07047094B10B501221A605A
:1005D000064A1468002CFCD0016010680028FCD08A
:1005E0000020186010680028FCD010BD00E4014015
:1005F00004E5014070B50C46054600F073F810B9EB
:1006000000F07EF828B121462846BDE8704000F091
:1006100007B821462846BDE8704000F037B8000012
:100620007FB5002200920192029203920A0B000B06
:100630006946012302440AE0440900F01F0651F80C
:10064000245003FA06F6354341F82450401C8242F8
:10065000F2D80D490868009A10430860081D016827
:10066000019A1143016000F03DF800280AD00649C4
:1006700010310868029A10430860091D0868039A3F
:10068000104308607FBD00000006004030B50F4CED
:10069000002200BF04EB0213D3F800582DB9D3F8A1
:1006A000045815B9D3F808581DB1521C082AF1D3C3
:1006B00030BD082AFCD204EB0212C2F80008C3F8CD
:1006C00004180220C3F8080830BD000000E0014013
:1006D0004FF08050D0F83001082801D0002070473A
:1006E000012070474FF08050D0F83011062905D016
:1006F000D0F83001401C01D0002070470120704725
:100700004FF08050D0F830010A2801D00020704707
:100710000120704708208F490968095808471020B0
:100720008C4909680958084714208A4909680958FA
:100730000847182087490968095808473020854923
:100740000968095808473820824909680958084744
:100750003C20804909680958084740207D490968BC
:100760000958084744207B49096809580847482028
:1007700078490968095808474C207649096809589A
:10078000084750207349096809580847542071499F
:1007900009680958084758206E49096809580847E8
:1007A0005C206C4909680958084760206949096854
:1007B00009580847642067490968095808476820AC
:1007C00064490968095808476C2062490968095852
:1007D000084770205F4909680958084774205D4937
:1007E00009680958084778205A490968095808478C
:1007F0007C205849096809580847802055490968EC
:10080000095808478420534909680958084788202F
:1008100050490968095808478C204E490968095809
:10082000084790204B4909680958084794204949CE
:10083000096809580847982046490968095808472F
:100840009C204449096809580847A0204149096883
:1008500009580847A4203F49096809580847A820B3
:100860003C49096809580847AC203A4909680958C1
:100870000847B0203749096809580847B420354966
:10088000096809580847B8203249096809580847D3
:10089000BC203049096809580847C0202D4909681B
:1008A00009580847C4202B49096809580847C82037
:1008B0002849096809580847CC2026490968095879
:1008C0000847D0202349096809580847D4202149FE
:1008D000096809580847D8201E4909680958084777
:1008E000DC201C49096809580847E02019490968B3
:1008F00009580847E4201749096809580847E820BB
:100900001449096809580847EC2012490968095830
:100910000847F0200F49096809580847F4200D4995
:10092000096809580847F8200A490968095808471A
:10093000FC2008490968095808475FF48070054998
:10094000096809580847000003480449024A034B54
:100950007047000000000020000B0000000B0000AA
:1009600040EA010310B59B070FD1042A0DD310C82C
:1009700008C9121F9C42F8D020BA19BA884201D97E
:10098000012010BD4FF0FF3010BD1AB1D30703D0C6
:10099000521C07E0002010BD10F8013B11F8014B7C
:1009A0001B1B07D110F8013B11F8014B1B1B01D198
:1009B000921EF1D1184610BD02F0FF0343EA032254
:1009C00042EA024200F005B87047704770474FF0A6
:1009D00000020429C0F0128010F0030C00F01B800C
:1009E000CCF1040CBCF1020F18BF00F8012BA8BF1A
:1009F00020F8022BA1EB0C0100F00DB85FEAC17CDE
:100A000024BF00F8012B00F8012B48BF00F8012B90
:100A100070474FF0000200B51346944696462039C1
:100A200022BFA0E80C50A0E80C50B1F12001BFF4A7
:100A3000F7AF090728BFA0E80C5048BF0CC05DF80D
:100A400004EB890028BF40F8042B08BF704748BF5B
:100A500020F8022B11F0804F18BF00F8012B7047CF
:100A6000014B1B68DB6818470000002009480A4951
:100A70007047FFF7FBFFFFF745FB00BD20BFFDE719
:100A8000064B1847064A1060016881F308884068E1
:100A900000470000000B0000000B000017040000DE
:100AA000000000201EF0040F0CBFEFF30881EFF3ED
:100AB0000981886902380078182803D100E0000015
:100AC000074A1047074A12682C3212681047000084
:100AD00000B5054B1B68054A9B58984700BD0000B0
:100AE0007703000000000020F00A0000040000006E
:100AF000001000000000000000FFFFFF0090D00386
:02000004000FEB
:1040000000000420A5B20F00CDB20F00CFB20F0008
:10401000D1B20F00D3B20F00D5B20F0000000000E4
:10402000000000000000000000000000B9450F0083
:10403000D9B20F0000000000DBB20F002D4D0F00C1
:10404000414E0F00DFB20F00DFB20F00DFB20F00F2
:10405000DFB20F00DFB20F00DFB20F00DFB20F00E0
:10406000DFB20F00DFB20F00DFB20F00DFB20F00D0
:10407000DFB20F00DFB20F00DFB20F00DFB20F00C0
:10408000DFB20F0079720F00DFB20F00DFB20F0056
:1040900035730F00DFB20F00854B0F00DFB20F004A
:1040A000DFB20F00DFB20F00DFB20F00DFB20F0090
:1040B000DFB20F00DFB20F000000000000000000C0
:1040C000DFB20F00DFB20F00DFB20F00DFB20F0070
:1040D000DFB20F00DFB20F00DFB20F0005850F0067
:1040E000DFB20F00DFB20F00DFB20F0000000000F0
:1040F00000000000DFB20F0000000000DFB20F0080
:1041000000000000000000000000000000000000AF
:10411000000000000000000000000000000000009F
:10412000000000000000000000000000000000008F
:10413000000000000000000000000000000000007F
:10414000000000000000000000000000000000006F
:10415000000000000000000000000000000000005F
:10416000000000000000000000000000000000004F
:10417000000000000000000000000000000000003F
:10418000000000000000000000000000000000002F
:10419000000000000000000000000000000000001F
:1041A000000000000000000000000000000000000F
:1041B00000000000000000000000000000000000FF
:1041C00000000000000000000000000000000000EF
:1041D00000000000000000000000000000000000DF
:1041E00000000000000000000000000000000000CF
:1041F00000000000000000000000000000000000BF
:1042000010B5054C237833B9044B13B10448AFF310
:1042100000800123237010BDC48600200000000030
:1042200038B90F0008B5034B1BB103490348AFF37E
:10423000008008BD00000000C886002038B90F00CB
:10424000154B002B08BF134B9D46A3F5803A002168
:104250008B460F461348144A121A00F05FF80F4BB2
:10426000002B00D098470E4B002B00D09847002021
:10427000002104000D000D48002802D00C4800F079
:104280000DF900F027F82000290000F097FA00F05F
:1042900011F800BF0000080000000420000000002A
:1042A00000000000C4860020BCCE00209D440F000A
:1042B000A9440F0008B50021044600F089F8044B1A
:1042C0001868C36B03B19847204600F04DF900BF52
:1042D00014B70F0070B50D4E0D4D761BB61006D0FD
:1042E000002455F8043B01349847A642F9D1094E01
:1042F000094D761B07F002FAB61006D0002455F8D7
:10430000043B01349847A642F9D170BDB88600201D
:10431000B8860020C0860020B8860020F0B486074A
:1043200046D0541E002A3CD0CAB2034601E0013CEC
:1043300037D303F8012B9D07F9D1032C2AD9CDB22D
:1043400045EA05250F2C45EA054534D9A4F11002AC
:1043500022F00F0C03F120071609674403F1100245
:1043600042E9045542E902551032BA42F8D1721CB2
:1043700014F00C0F03EB021204F00F0613D0331FDE
:1043800023F003030433134442F8045B9342FBD14C
:1043900006F003042CB1CAB21C4403F8012B9C4262
:1043A000FBD1F0BC704734461346002CF3D1F8E73C
:1043B00014460346C1E71A462646E0E7024B13B10E
:1043C000024800F06BB8704700000000A9440F00DD
:1043D0002DE9F84F2F4B2DED028B834618680F46C1
:1043E00000F078F82C4BD3F80080D8F84861AEB1D3
:1043F00008EE10BA4FF001094FF0000A7468651E0C
:104400000CD4013406EB840487B1D4F80031BB42EC
:104410000CD0013D6B1CA4F10404F5D1BDEC028B62
:104420001C4B1868BDE8F84F00F056B87368226856
:10443000013BAB420CBF7560C4F800A0002AE8D075
:10444000D6F88801D6F804B009FA05F101420BD17B
:10445000904772685A4513D1D8F84831B342D8D042
:104460001E46002ECAD1D9E7D6F88C0101420CD1E4
:10447000D4F8801018EE100A904772685A45EBD0B5
:10448000D8F84861002EB9D1C8E7D4F88000904729
:10449000DFE700BF2884002014B70F000023014687
:1044A0001A46184600F01AB838B5084B084D5B1B81
:1044B0009C1007D0043B1D44013C55F80439984733
:1044C000002CF9D1BDE8384007F01EB9C4860020A1
:1044D000C0860020704700BF704700BF2DE9F0473D
:1044E000DFF880A00646DAF8000098460F469146AD
:1044F000FFF7F0FF1A4B1B68D3F8484124B36568F7
:104500001F2D26DC5EB9AB1C0135DAF800006560B2
:1045100044F82370FFF7E0FF0020BDE8F08704EBCC
:1045200085030121C3F88890D4F88821A9400A4363
:10453000022EC4F88821C3F80881E4D1D4F88C3164
:104540001943C4F88C11DEE703F5A674C3F848419B
:10455000D5E7DAF80000FFF7BFFF4FF0FF30DCE7E8
:1045600014B70F0028840020FEE700BF38B50D46C1
:10457000E8B90968C9B10F4CA1420BD0631A3B2BB3
:1045800011D93C22204606F0B9FE03E0CA5CE25491
:10459000013BFBD2074800223C2103F0D1F9002364
:1045A000A0872B6038BD3D23F2E70E23F9E70123F6
:1045B000F7E700BF807F0020074A6FF002039E45A7
:1045C00002D1EFF3098101E0EFF308818869A0F1DE
:1045D00002000078104700BF6D450F0038B5054652
:1045E000A8B10D4C00223C21204603F0A9F9A38F6D
:1045F00083420ED1224604F13C0152F8040B45F8E7
:10460000040B8A42F9D10133A387002038BD0E2064
:10461000FCE70B20FAE700BF807F00200B2970B574
:104620000446154608462FD92389053304EB430178
:104630002044431ADAB2012A26D9814224D81348E9
:1046400006F05CFE2388522B06D1AB0711D062889E
:104650004CF668639A420CD00F2014E034F8022B19
:10466000824204D02E88964203F1010308D1002033
:1046700009E0218900230A344FF6FE7043F20C054D
:104680009942EBD80B2070BD0920FCE7E0860020A2
:1046900008B5002203F054F9044A5178137843EA2C
:1046A0000123984214BF0B20002008BDE0860020A3
:1046B00038B50C4C21684B1C054612D00A484FF403
:1046C000805206F00DFE48B115B1206800F01CFCC8
:1046D000054920684FF4806200F036FC4FF0FF334C
:1046E000236038BD2C840020EC8600202DE9F041A9
:1046F000DFF84480044624F47F651846D8F800307B
:1047000025F00F05AB420E46174609D0FFF7D0FF44
:104710000848C8F800504FF48052294606F0EEFDD4
:104720000448C4F30B043A4631462044BDE8F04146
:1047300006F0E4BDEC8600202C840020BFF34F8FF0
:104740000549064BCA6802F4E0621343CB60BFF32D
:104750004F8F00BFFDE700BF00ED00E00400FA0549
:104760004BDF704710DF704711DF704713DF704772
:1047700018DF704760DF704769DF704761DF70479F
:104780001FB50023CDE9013303936846022300934C
:10479000FFF7EEFF05B05DF804FB000008B5034B22
:1047A0001B68DB0700D500BEFFF7C8FFF0ED00E097
:1047B000014B1878704700BFED9600202DE9FF48A7
:1047C0004D4B40F60212C3F8402500F009FA00F004
:1047D00029FE002000F0B2FA00F0A6FE48B1052044
:1047E00000F0ACFA00F0B2FE00F0D6FE062000F0B9
:1047F000A5FA4FF08043414FD3F81C55B12D0CBFA3
:10480000012300233B704FD0A5F1A8014C424C413D
:104810003B4EDFF8FC9004F0010333704FF080430F
:10482000D3F8000400F00108002C40D14E2D3DD0FB
:10483000572D3BD0334B1B681A68334B9A4202D139
:10484000B8F1000F32D16D2D31D0122000F0B4F943
:1048500004463378002B35D1122000F0ADF910B1A9
:10486000072000F0A9F900F00100307000F00AFD07
:10487000DFF8A0B0824630B12CB9224B1B681A6811
:10488000224B9A4259D043F204031B684B4509BF9F
:1048900043F208034FF490531B6803F500731B6841
:1048A0005B4539D1012448E00124B1E701244FF0F0
:1048B000804300226D2DC3F81C2500F0E580002CFC
:1048C000C7D1C2E70120CEE7544636E0444634E083
:1048D0004FF480030B6070E0022000F02FFAA5F186
:1048E0004E035842584103F011FEADE0002211463C
:1048F000C2E003F05BFEC7E000A00040EE9600209F
:10490000ED96002030840020D51A5A007E67E54ECF
:10491000DBE5B1517CB0EE87002CC3D1BAF1000FBA
:10492000D2D0B8F1000FD1D0654B664A1B686648FB
:104930001A60664B43F00103984743F20403604A50
:104940001B6812684B4509BF43F208034FF49053AC
:104950001B6803F500731B685B450CBF5C4B0023B1
:1049600013601CB9BAF1000F40F08E803378002B31
:10497000B2D0082000F0E2F93B780BB9FFF700FF56
:1049800001234FF474203B70FFF7F0FE514B524966
:104990001868019001A8FFF7E5FE504991F8163319
:1049A0005A09EC231341DA0707D54D4B9A68002AC0
:1049B0008ED01A6842F480021A600C22494B02938E
:1049C00000210DEB0200FFF7A9FC40F20113029A4F
:1049D000039303A94020FFF7CFFE0C2200210DEB2B
:1049E0000200FFF79BFC9DF80C30029A43F0010394
:1049F00003A9A0208DF80C30FFF7BEFE0C22002189
:104A00000DEB0200FFF78AFC01241723029AADF890
:104A10000E3003A923208DF80C40FFF7ADFE0C22C9
:104A200000210DEB0200FFF779FC0623029A8DF8B6
:104A30000C4003A920208DF80E40ADF81030FFF790
:104A40009BFE02A8FFF796FE43F2040330781B6832
:104A50004B4509BF43F208034FF490531B6803F51D
:104A600000731B685B4504D0572D02D04E2D7FF498
:104A70003DAF012240F6B83100F0ECFC3378002B5A
:104A80003FF437AFFFF770FE00F0EEF800F0FAFBEE
:104A900098B100F049FD80B943F204031B684B450F
:104AA00005D13B780BB9FFF76BFEFFF75DFE044BBA
:104AB0001B6800221A6000F009FDFFF73FFE00BFEF
:104AC00030840020D51A5A000048E80120B70F00B2
:104AD0007E67E54E18B70F009D470F0000E100E02C
:104AE000F0CD00200080002010B58EB03423ADF84A
:104AF00002300DF10201002301A8ADF80430FFF7E8
:104B00003DFE044640B9BDF80430102B07D0112BF0
:104B10000CD001A800F0D2FF20460EB010BD054B0E
:104B200001221A70072000F009F9F2E7014B187012
:104B30000820F8E7EC96002013B5002301A80193A4
:104B4000FFF70EFE044660B9019802F03FFA019BA0
:104B50000A2B09D0092B09D00B2B02D1012004F01C
:104B60009BFB204602B010BD2046F8E70220F6E786
:104B700008B5FFF7B9FF0528FBD1FFF7DDFF0528D2
:104B8000F7D108BD0021024A084602F0FBBD00BF74
:104B9000714B0F001F2884BF00F01F00044B054A13
:104BA00098BF4FF0A04300F5E07043F82020704715
:104BB000000300500C0003001F288ABF064B4FF073
:104BC000A04300F01F00D3F8103523FA00F0C043D3
:104BD00000F00100704700BF000300507047000064
:104BE00008B54FF0804301220021DA601220C3F89B
:104BF00018159A60FFF7CEFF0720FFF7CBFF144B85
:104C00004FF4C85043F001039847FFF7E7FF114AFC
:104C10001E21082002F092FD08B102F049FE02F0C8
:104C2000F3FC0D490D4BE02081F823001B684FF485
:104C30007A72B3FBF2F3013BB3F1807F07D2084AEB
:104C40005360002381F8230093600723136008BD9D
:104C500030B70F00F096002000ED00E03484002013
:104C600010E000E070470000164A4FF400310023C6
:104C700010B5F03242F8F03CC2F8801002F1C042A8
:104C800002F53C524FF48031C2F84813C2F80813C1
:104C90000121516091604FF080420B4CD1600220A5
:104CA0001F2B1A46C6BF03F01F0221464FF0A0413A
:104CB00002F5E0720133302B41F82200F0D1FFF70A
:104CC000D1FF10BD10E000E000030050074B23F8B7
:104CD0001010074B00221A6082B01B680193019BE1
:104CE000044B01221A6002B0704700BFE498002014
:104CF00010C1014008C001400A4B1A680A4B1968EC
:104D0000B1FBF2F302FB1313B3EB520F4FF04F0161
:104D100088BFD31A50084B43B3FBF0F1002089B28F
:104D2000FFF7D4BFEC980020E0980020024A1368F7
:104D300001331360FFF7E0BFE09800201B4A1168C1
:104D4000082823D8DFE800F013051322221A1E24B6
:104D50002A00174B40F6B83018604FF47F4303F039
:104D6000103323F08053994218BF13607047104BE3
:104D70004FF4967018604FF47F03F0E70C4B6422F9
:104D80001A6070470A4B40F6B83018600B46E6E7E9
:104D9000074B40F6B8301860FF23E0E7044B4FF4B0
:104DA000967018604FF0FF13D9E700BFF09800200D
:104DB000EC98002000F1804382B01A68002A14BFEA
:104DC0000120002004D000221A601B680193019B7F
:104DD00002B070470F4B1A78D2B902784FF0804179
:104DE000C2F34002C1F88025027802F00102C1F846
:104DF0007825094A1168C90706D4E02182F8001312
:104E00000121C2F880111160012204481A70704714
:104E100003487047EDCD002000E100E00000AD0B3D
:104E20000C00AD0B014B02681A607047FC98002023
:104E30004FF080434FF46072C3F8042370470000C2
:104E400010B54FF08043D3F80443620707D54FF401
:104E50008470FFF7AFFF10B11E4B1B689847A30685
:104E600008D54FF48A70FFF7A5FF18B11A4B002040
:104E70001B689847600608D54FF48C70FFF79AFFBF
:104E800018B1154B01201B689847210608D54FF42F
:104E90008E70FFF78FFF18B1104B00201B689847EA
:104EA000E20508D54FF49070FFF784FF18B10B4B63
:104EB00001201B689847A3050AD54FF49270FFF7AD
:104EC00079FF28B1054BBDE810401B680220184748
:104ED00010BD00BFF4980020F8980020FC98002036
:104EE00070B5084C0023934200D170BD51F8235097
:104EF000D4F80064F607FBD540F82350BFF35F8F6A
:104F00000133F0E700E001404FF080531A69B0FB35
:104F1000F2F302FB130373B9084B0222C3F8042512
:104F2000C3F80805D3F80024D207FBD500220448B3
:104F3000C3F8042570470348704700BF00E00140F4
:104F40000000AD0B0A00AD0B10B5054C0123C4F8F1
:104F50000435FFF7C5FF0023C4F8043510BD00BFBA
:104F600000E00140BFF34F8F0549064BCA6802F4C9
:104F7000E0621343CB60BFF34F8F00BFFDE700BF7C
:104F800000ED00E00400FA05064B1B68082B06D173
:104F9000054B1B68032B02D8044AD05C70470020E5
:104FA000704700BF300100103401001036B70F0009
:104FB00008B5724B1B68082B50D14FF0804300227C
:104FC000C3F80C21C3F81021C3F838254FF08052E4
:104FD00003F54043D2F80414C3F82015D2F808149E
:104FE000C3F82415D2F80C14C3F82815D2F81014FD
:104FF000C3F82C15D2F81414C3F83015D2F81814CD
:10500000C3F83415D2F81C14C3F84015D2F8201494
:10501000C3F84415D2F82414C3F84815D2F828145C
:10502000C3F84C15D2F82C14C3F85015D2F830142C
:10503000C3F85415D2F83414C3F86015D2F83814F4
:10504000C3F86415D2F83C14C3F86815D2F84014BC
:10505000C3F86C15D2F84424C3F87025FFF794FF09
:1050600010B1474B474A1A60FFF78EFF18B1464B05
:10507000FB22C3F81825FFF787FF48B14349444B8B
:105080000A681B6822F00F0203F00F0313430B6042
:10509000FFF77AFF18B13F4B4FF400721A60374B9D
:1050A0001B68082B09D14FF08043D3F80024D107A7
:1050B00044BF6FF00102C3F80024374AD2F88830A9
:1050C00043F47003C2F88830BFF34F8FBFF36F8F84
:1050D0004FF01023D3F80C22D2071ED52F4B0122FC
:1050E000C3F80425D3F80024002AFBD04FF0102287
:1050F000D2F80C3223F00103C2F80C32274B1A46C7
:10510000D3F800140029FBD00021C3F80415D2F80D
:105110000034002BFBD0FFF725FFD3F80022002A34
:1051200003DBD3F80432002B23DA1C4B0122C3F833
:105130000425D3F80024002AFBD04FF010221221BE
:10514000C2F80012D3F80024002AFBD04FF010233D
:105150001222C3F80422114B1A46D3F80014002976
:10516000FBD00021C3F80415D2F80034002BFBD08B
:10517000D1E70B4B0B4A1A6008BD00BF300100108D
:105180008C5600404881030000F00040E40E0040CF
:10519000580200104096024000ED00E000E001409F
:1051A000348400200090D00313DF704718DF70476D
:1051B000064B1878012803D1012904BF0221197078
:1051C00012B1104602F074BB704700BF2D99002049
:1051D00070B5124C124D134ED4F800347BB1C4F8A4
:1051E0000056C4F80456C4F80856C4F80C56C4F85F
:1051F0001056C4F81456C4F81856C4F81C5602F0D9
:1052000027FB06F00BF820B104F0E2FD002005F0CA
:1052100025FA3378023B022BDED870BD0000014036
:105220003546526E2D99002008B5FFF7C1FA88B1B6
:1052300011481C2101F062FF08B102F039FB0F494F
:105240000D4800231C2201F049FF98B1BDE8084039
:1052500002F02EBB4FF47F20FFF756FE07220749CE
:105260004FF47F20FFF770FE054B1A78012A04BF28
:1052700002221A7008BD00BF249900203099002036
:105280002D99002013B543F2040301A81A68124BAC
:105290009A420ABF43F208034FF480541C6800F09E
:1052A000A9F92368013302D16368013311D0019B4E
:1052B0001A88012A0DD1588820B199680022204609
:1052C00002F03EFB019B5B881B1A5842584102B01A
:1052D00010BD0020FBE700BFDBE5B15184B02DE934
:1052E000F34108AC84E80F009DF82040BDF822800F
:1052F0000B9D01A8DDE9097600F07CF954B9384B23
:105300000122FF21A3F802809D601A809980354B0D
:105310001A7012E0012C17D1314BBA192A449A6045
:10532000A5221A80FF229A800C9AA3F80280C3E972
:1053300003765D619A612B4B1C70FFF775FF02B01D
:10534000BDE8F04104B07047032C0FD1019A244B03
:1053500011881980518892689A60C3E90376AA225D
:1053600059809A805D611F4B0122D1E7022C15D133
:10537000019A1B4B1188A5290AD100229A60FF22AD
:105380001A60FF229A800022C3E903225A61EAE7E9
:1053900019805188926859809A60F2E7052C0ED1E5
:1053A000FFF706FA40B100F08DFD08B102F080FA77
:1053B0000C4B03221A70C2E700F012FAF5E7042C36
:1053C00008D1074B00229A60FF221A60019A928846
:1053D0009A80B2E7062CB2D1024B0422EAE700BF62
:1053E000309900202D99002000B50C4B1B7889B016
:1053F00063B90B4B1B786BB905238DF80C30079BF9
:10540000009303AB0FCBFFF769FF03E004F0EEFA64
:105410000028EED009B05DF804FB00BF2C990020F5
:10542000209900201FB50023CDE90233074B0193DB
:1054300001F020FE30B906494FF47F2301A84B60EC
:1054400001F03AFE05B05DF804FB00BFB1510F005A
:105450002499002070B505460E460AB180F001027D
:10546000154B02F001021A7000F0A0FF044628B9A3
:1054700035B100F083FC0446FFF7AAFE204670BD5C
:10548000BEB10E4B0E4A0F481D70294602F0ECF8D3
:105490004FF400444FF4FA7000214FF47A72002365
:1054A000E4FB060105F0AEFF2A460146064802F07D
:1054B000EDF800F071F9DEE72C990020209900202A
:1054C000E9530F003CB70F00009900201FB5144BA3
:1054D0004FF0FF32C3F88020C3F8802143F2040369
:1054E0001A68104B9A420ED143F208031C682046FA
:1054F000FFF75AFE10B14FF000531C60204600F039
:105500009DF804B010BD0023CDE902334FF4805460
:1055100006236846CDE90034FFF748FEEAE700BFFE
:1055200000E100E0DBE5B15107B501A800F062F849
:10553000019B1A88A52A07D09888A0F1AA0358428F
:10554000584103B05DF804FB0120FAE710B501F003
:1055500059F9A8B10E4B0F4843F00103984701F0E9
:10556000B7F808B102F0A4F901F04CF908B102F063
:105570009FF901F0F9F8044638B102F099F904E016
:1055800001F018F904460028E4D1204610BD00BF00
:1055900040B70F0000A8610000B589B003AB14222A
:1055A00000211846FEF7BAFE02228DF80C200022D8
:1055B00000920FC8FFF792FEFFF70AFE002009B025
:1055C0005DF804FB13B5044601A800F013F8019B35
:1055D0001A8822805A8862809A68A2609A88A2807B
:1055E000DA68E2601A6922615A6962619B69A361A3
:1055F00002B010BD014B0360704700BF00F00F0008
:10560000F0B50346186880F308885868FF2464B230
:10561000EFF30585002D01D1A64600472546064635
:1056200021273FBAF0B40024002500260027F0B45B
:10563000F92040B2004700BFF0BD00BFFFF7E0BF58
:1056400073B500230DF1020101A8ADF802300193FA
:1056500002F0B6FDF8B9019C25785DB3174B93F8BD
:105660003020032A28D00C2606FB00F29958E9B90D
:1056700098189D5093F830200132D2B283F8302030
:10568000BDF802300E4A9B08013B0434436084603D
:10569000084602F077F8019B33B128B1184602F0B2
:1056A000ABFD08B102F004F902B070BD013004286E
:1056B000DAD1F0E70720EEE70420ECE74C99002070
:1056C00009570F0010B50C230B4A584311181358F3
:1056D00083B192F830308C68013BDBB282F8303015
:1056E00000231350C1E90133201F02F085FD08B1EA
:1056F00002F0DEF8002010BD4C990020084609B1E8
:1057000002F0D6B870470000214B70B50122214E3F
:105710001A7096F8303003B970BD1E4C002523680E
:1057200083B1013B042B07D8DFE803F01C0612030A
:105730002800204600F0D2FEE8B2FFF7C3FF08B110
:1057400002F0B6F80135042D04F10C04E7D1E0E7CE
:10575000A3686360204600F065FE0028ECD002F0EC
:10576000A7F8E9E7204600F04BFF00F027FF08B15B
:1057700002F09EF80520FFF7E1FADDE700F06CFF8C
:1057800000F08AFFBDE870400620FFF7D7BA00BFDF
:10579000209900204C99002008B50E4B002283F878
:1057A000302011460132042AC3E90111196003F1C6
:1057B0000C03F7D1084800F02FFE02F099FC08B165
:1057C00002F076F8054802F07FFC08B102F070F8AC
:1057D000002008BD4C990020FD560F0041560F00D7
:1057E00008B50020FFF76EFF0120FFF76BFF0220D6
:1057F000FFF768FF0320FFF765FFBDE8084002F0F0
:10580000BFBC006870476CDF70476DDF70476EDFAC
:1058100070476FDF704772DF704773DF704774DF68
:10582000704776DF704777DF70477ADF70477CDF3D
:1058300070477FDF704786DF70478FDF704790DFEC
:105840007047AFDF7047B0DF7047B1DF7047B2DF3E
:105850007047B5DF704764DF704766DF70470C281C
:1058600013D8DFE800F014121212121209120712F4
:10587000120D0B0002207047032070470420704770
:10588000042914BF06200520704706207047012018
:10589000704702F00DB810B5044608460321FFF723
:1058A000DEFF03210246204601F06AF918B1BDE887
:1058B000104001F0FDBF10BD0346032B10B5084694
:1058C000144620D0042B24D169B1124B18884FF60E
:1058D000FF7398421DD01321FFF7A3FFC8B1BDE8A5
:1058E000104001F0E5BF104602F086F808B101F063
:1058F000DFFF094B1B689C420BD1012203210748A3
:1059000001F03EF9EAE70121FFF7A9FF0121024674
:10591000F5E710BD3A840020409A0020F09900205D
:10592000F8B50A4DAB889E181D2E14460DDC2F6865
:10593000FE1802F1010C07F803C07070B01C05F0EE
:10594000DDFCAB8802331A19AA80F8BDA0990020AB
:10595000F0B54E4D297895B0002940F092804C4C1E
:10596000019110222046FEF7D9FC4A4B0199236091
:1059700018220EA8FEF7D2FC01238DF83830282318
:105980001093454B1B78002B7DD0444B04AC03F1A6
:10599000100618685968224603C20833B3421446F9
:1059A000F7D13F4C10220DEB0201E01D05F098FCF1
:1059B000002868D03B4801210460FFF728FF08B1A8
:1059C00001F076FF384B08AA03F1100C174618684F
:1059D0005968164603C6083363453246F7D1206836
:1059E000A2880C903148A379ADF83420002101221F
:1059F0008DF836300760FFF70CFF08B101F058FF53
:105A000003238DF84C3004238DF80E3041F23053CF
:105A1000ADF81030264B08AA9B798DF812300DF1A5
:105A20000F0104A8FFF717FF012210460DF10E0128
:105A3000FFF776FF1F4805F098FC1E49C2B2092007
:105A4000FFF76EFF102208A90620FFF769FF104933
:105A500019480EAAFFF7DFFE08B101F029FF164C26
:105A6000042221780120FFF7DEFE08B101F020FFBB
:105A700020780121FFF7D1FE08B101F019FF0123C1
:105A80002B7015B0F0BD0623BEE700BF249A00209E
:105A9000A099002080990020EC99002083B70F0086
:105AA000B09900203C9A0020B7990020209A00204D
:105AB000F099002046B70F0038840020F0B5044666
:105AC0000146B1B0A34801F08FF82388262B3BD8BC
:105AD0000F2B04D8012B00F0C58031B0F0BD103B76
:105AE000162BFAD801A252F823F000BF755B0F0005
:105AF000835B0F00DB5A0F00B55B0F00A15C0F004A
:105B0000DB5A0F00DB5A0F00DB5A0F00DB5A0F0085
:105B1000DB5A0F00BF5C0F00DB5A0F00DB5A0F008F
:105B2000DB5A0F00DB5A0F00DB5A0F00DB5A0F0065
:105B3000315D0F00DB5A0F00235D0F00DB5A0F00B1
:105B4000DB5A0F002B5C0F00513B9AB2052AC4D8D8
:105B5000052BC2D801A252F823F000BF715C0F00E0
:105B6000BF5C0F00DB5A0F00DB5A0F00435D0F00D4
:105B7000175C0F00784BA2881A80784B00221A70AD
:105B8000ABE78023744CADF82430754B208832226B
:105B90001A6010A9012309AAFFF759FE08B101F004
:105BA00087FE704B1B780BB9FFF7D2FE4FF6FF73E1
:105BB000238092E76C4B03AC9A79186899888DF82A
:105BC00022200790DA1DADF8201017332646106802
:105BD0005168254603C508329A422C46F7D1634BDB
:105BE00009AA03F11807154618685968144603C432
:105BF0000833BB422246F7D11868206056485C4AF9
:105C0000008810AB8521CDE91456FFF712FE00285D
:105C10003FF463AF82E0A379002B7FF45EAF4E4B7D
:105C200013211888FFF7FDFDF1E7237A012B7FF49C
:105C300054AF4A4B00221A70494B19680139196058
:105C400069B910AB14221846FEF768FB05228DF8DF
:105C50004020149A00920FC8FFF740FB3DE7FFF782
:105C600077FE3AE73C4B00211888FFF7F6FDCEE7B8
:105C7000A379002B3FF431AFA27B043A022A3FF60E
:105C80002CAF022B18BF01238DF840304FF4C173A5
:105C9000ADF84430304B10A91888FFF7D4FDB6E7B3
:105CA000314A258A518D02F1180000238D420CBF24
:105CB000014619460732A088FFF7BDFDA7E7264B2E
:105CC0001C884FF6FF75AC4227D02A4B1B78F3B1E6
:105CD0002949012308222046FFF7B7FDF0B9024603
:105CE000014602232046FFF7B0FDB8B92A460C2131
:105CF0002046FFF7A6FDA0F54053023B012B7FF69F
:105D0000ECAE08283FF4E9AE112880D1E5E61A464A
:105D100019462046FFF799FD79E7082001F0C8FDF4
:105D2000DBE60D4B002218881146FFF788FD6EE771
:105D30000023ADF84030084B10A91888FFF77DFD0F
:105D4000CBE6E188044B1729188828BF1721FFF7F5
:105D500080FD5CE7F09900203A840020249A00201E
:105D60003C840020379A0020B0990020C899002078
:105D7000329A0020EC990020E499002030B5434A83
:105D8000434800231370434A95B0137000F044FB5E
:105D900001F0F2FD0446002861D13F48FEF71EFCE9
:105DA00000285FD13D4B01221A7011233C488DF829
:105DB000043005F0DAFA3A4982B201A8FFF737FD5C
:105DC00008B101F075FD0822002104A8FEF7A6FA2B
:105DD000344A4FF0C87304A8CDE90423FFF725FD2A
:105DE00008B101F065FD00210C2201A8FEF796FA2A
:105DF0000823ADF804302C4B02932C482C4B039312
:105E000001A900F03DFD08B101F052FD294D4022ED
:105E1000002104A8FEF782FA284605F0A6FA0595A7
:105E2000254DADF81000284605F09FFA0795234D43
:105E3000ADF81800284605F098FA1123ADF83000A7
:105E400004A8ADF84C300D9500F0E2FF1C4B302259
:105E50001A7007225A7010229A70FFF779FD2046B7
:105E600015B030BD04A8FFF7D0FC08B101F020FD4B
:105E70009DF8113004A801338DF81130FFF7C3FCF1
:105E8000002892D001F014FD8FE700BF379A002060
:105E9000B9580F00319A0020B0990020EC990020E9
:105EA00046B70F0008001800155F0F00F09900209A
:105EB00093580F004DB70F0057B70F006CB70F0086
:105EC000329A002010B50F4B01221A700E4B188821
:105ED0004FF6FF73984207D01321FFF7A2FC08B1D9
:105EE00001F0E6FC002010BD084C2278002AF9D011
:105EF000074B1878FFF793FC08B101F0D9FC002399
:105F00002370EFE7379A00203A840020249A00207B
:105F100038840020F0B50B7889B005460C46092B73
:105F200023D8DFE813F02B00330042000A001800EA
:105F30002400FF00080145000D0100F08DFB042145
:105F4000FFF78DFC04210246284600F019FE60B1DF
:105F500001F0AEFC09E0FFF7B5FF08B101F0A8FCC5
:105F600000F09AFB08B100F0A5FB09B0F0BDFFF707
:105F7000A9FF0028F7D001F09BFCF4E7734B012246
:105F80001A704B681A78724B1A70EEE76F4B022644
:105F90001E704B681B78012BE7D100F00FFB3146D8
:105FA000FFF75DFC02463146CEE7684B0322EBE784
:105FB0000520FEF7C3FE654B1E78022E2AD0032E65
:105FC00050D0012ED1D104AB102218460021FEF78B
:105FD000A5F95F4A237A12788DF8102000220392E7
:105FE0000C2B4FF00302CDE90120DCD16368184689
:105FF000FFF707FC0590181DFFF703FC069003F15F
:106000000800FFF7FEFB079001A800F00BFA00283C
:10601000ABD0C4E7237A13F0030011D0C0F104021F
:106020001A44D2B219464FF0000C0E46013167688F
:10603000C9B2914207F806C0F7D11B1A0433237284
:106040000123049363680693237A04A89B080593AD
:1060500000F0D6FA002888D00221FFF700FC0221C8
:10606000024671E7207A830702D0324631466BE759
:10607000384E0190314601F095FC014618B1284692
:10608000FFF709FC71E76168019A306805F036F99D
:10609000019801F0EDFC01460028F0D101A930463D
:1060A00001F0F6FC01460028E9D104230493019B8A
:1060B0009B08059304A83368069300F00FFA07467F
:1060C00040B9254A237A11680B441360234B326888
:1060D0001A604AE709281BD11F4B217A1A6811441C
:1060E00019601F4B1B78002B3FF43FAF1D4C2388DA
:1060F000013B9BB22380002B7FF437AF284600F092
:1061000005FD08B101F0D4FB174B1B8823802CE759
:10611000306801F071FC014610B12846FFF7BBFB67
:106120003946ACE70E4B01221A700F4A8B88138058
:106130000C4A138019E70A4A002313700A4AF8E749
:10614000054B196800F0A6FC01E700BF319A00205A
:10615000389A0020449A0020289A0020409A002073
:10616000309A00202E9A00202C9A002018DF7047C9
:10617000012973B514460D461A4608D0032912D0DA
:1061800014B3204602B0BDE8704001F091BB0F4B44
:106190001B78052BF4D10E4B1B68002BF0D0214649
:1061A00004209847ECE7094E3378022BE8D1094BDD
:1061B00001925B689847064B35701B68002BDFD057
:1061C000019A21462846ECE702B070BD509A0020A3
:1061D000489A0020549A002030B589B003AC1422AC
:1061E00000212046FEF79AF8094B1B88ADF80E30C7
:1061F000084BDB6806930025079B8DF80C50009335
:1062000094E80F00FFF76AF8284609B030BD00BFD8
:10621000609A0020AC9A002000B589B003238DF865
:106220000C300A4B1B88ADF80E30094B5A680492AB
:106230009A68DB680693079B0093059203AB0FCB2C
:10624000FFF74CF8002009B05DF804FB609A0020CD
:10625000AC9A002000B589B001238DF80C300F4BAB
:106260001B88ADF80E3043F204031A680C4B9A42B7
:106270000ABF43F208034FF480521A68094B596869
:1062800004919968DB6806930591009203AB0FCBEC
:10629000FFF724F8002009B05DF804FB609A0020A5
:1062A000DBE5B151AC9A002000B589B003AB1422F4
:1062B00000211846FEF732F804228DF80C20002247
:1062C00000920FC8FFF70AF809B05DF804FB000060
:1062D0001A4BF7B51A4C1C601A4B02221A70FEF7C3
:1062E00067FA194B48B11968204600F007FF10B350
:1062F00003B0BDE8F04001F0DBBA1D68134F013D6B
:106300002D0B0135044643F204063368BB420ABF35
:1063100043F208034FF48050186800EB0430013456
:10632000FEF7F2FDA542F0D80023054800931A4677
:106330000321FFF71DFF03B0F0BD00BFC49A00208A
:10634000BC9A0020509A0020649A0020DBE5B151ED
:1063500070B50C4686B00321CDE9021005469608BB
:1063600002A8019304940596FFF700FFE0B1B4F58D
:10637000805F019B11D8012302A8CDE90235CDE948
:106380000446FFF7F3FE78B9032302A8CDE90235EE
:10639000CDE90446FFF7EAFE06E01A46E11AE81ADC
:1063A000FFF7D6FF0028E6D006B070BD1FB5134B2F
:1063B0000193134B134900241C70134B01A81C803C
:1063C000CDE9024400F078FE104B10B11C7004B00F
:1063D00010BD43F2040211680D4A914208BF43F216
:1063E000080208490CBF12684FF480524A60094AFB
:1063F0000021116001221A70E9E700BF71610F00EE
:10640000A89A0020BC9A0020609A0020509A002090
:10641000DBE5B1514C9A0020014B1860704700BF7A
:10642000489A002010B54368224C0FCB84E80F0037
:106430002278500701D5910735D16068830732D1A2
:10644000A36899072FD1E16811F003042BD11844F8
:1064500008441949B3F5204F086026D843F20403D5
:106460001968164B994209BF43F208034FF4692398
:106470001B68C3F56A23984217D8114B114919605C
:1064800011495960D10709D5104A9A60104B1B7801
:10649000012B0CD1FFF71CFF204610BD92074CBF0B
:1064A0000C4A0D4AF1E70624F6E70C24F4E7082429
:1064B000F2E700BFAC9A0020649A0020DBE5B151FE
:1064C000549A0020D1620F00A9620F0055620F009C
:1064D000509A002019620F00D9610F002DE9FF4783
:1064E000002859D0816811F0030457D12E4B1B7836
:1064F000052B55D1DFF8BC8042682C4ED8F800300F
:10650000950003EB8203326893424746B24608D9AE
:106510004FF0FF33C8F800300C24204604B0BDE82B
:10652000F0870391FEF744F9DFF88C90039948B1A6
:10653000D8F80030D9F800002A4600F0CFFDE8B1C5
:106540000446EAE743F20403D8F800601A68184BDF
:106550009A420ABF43F208034FF48050186803912F
:1065600000232A463044FEF7C1F80399D9F8000009
:1065700000950B4600220121FFF7FAFD3B681D4400
:10658000DAF800303D609D420CD1FEF711F9002889
:10659000C3D1FEF78DF8C0E70E24BEE71024BCE798
:1065A0000824BAE70924B8E7509A0020649A00202A
:1065B000DBE5B1514C9A0020C49A002070B50B4B1A
:1065C0001D6885B90A4E3378042B0CD1094C0A4B4F
:1065D00021781A780948FEF721F810B9052333709D
:1065E00070BD2570FCE70820FAE700BF4C9A002038
:1065F000509A0020A89A0020AC9A0020689A0020A7
:10660000F8B5114B1A78032A03D0042A03D00824C2
:1066100016E004221A700D4B1C68002CF7D10C4DAB
:1066200043682F789E0007EB8303402B0AD88168CC
:1066300008483246384404F061FE2B7833442B700E
:106640002046F8BD0924FBE7509A00204C9A002010
:10665000A89A0020689A002010B50B4C2378052BCF
:1066600010D10A4B0A4A1B68116899420AD10623C5
:106670002370084B1B685868FEF70AF808B907230F
:10668000237010BD0820FCE7509A0020649A002077
:106690004C9A0020C49A0020044B1B78072B02D18F
:1066A000034B9B6818470820704700BF509A002092
:1066B000549A002000B589B006238DF80C30079B52
:1066C000009303AB0FCBFEF709FE09B05DF804FBA6
:1066D000F0B58DB005A8FEF775FF089C002C3ED0E4
:1066E0000B9E04F58053B3422DD91E4BA6F5805561
:1066F00003EA550543F208031B689C420BD8690066
:106700002B46A4EB450201F5805106EB4500FFF74F
:106710001FFE0DB0F0BD05F58053012701A8CDE99E
:106720000173CDE90337FFF721FD0028F1D14FF4C4
:10673000805301A8CDE9023301970497FFF716FDB6
:106740000028E6D1DBE70123CDE90136A4084FF4A8
:10675000805301A803930494FFF708FDD9E720466E
:10676000D7E700BF00F0FFFF00B58DB005A8FEF72A
:1067700029FF099890B1089B9BB943F204031A685A
:106780000B4B9A4210D143F208031B688008002289
:10679000039001A8CDE90123FFF7E8FC0DB05DF8F7
:1067A00004FB0B9A1344F1E74FF48053EEE700BF6C
:1067B000DBE5B15100B58DB005A8FEF703FF0998E0
:1067C000A8B1089BB3B943F204031A680C4B9A4270
:1067D00013D143F208031B680393800803214FF48D
:1067E0007422049001A8CDE90112FFF7BFFC0DB09F
:1067F0005DF804FB0B9A1344EEE74FF48053EBE78C
:10680000DBE5B15110B58CB005A8FEF7DBFE0898AA
:10681000B8B10B9C00F58053A34214D943F208038E
:106820001B6898421BD80F4BA4F5805203EA520311
:106830005900A0EB430201F5805104EB4300FFF740
:1068400087FD0CB010BD800803224FF480530490E4
:1068500001A8CDE901230394FFF788FCF1E70E209E
:10686000EFE700BF00F0FFFFA8DF7047AADF704727
:10687000ADDF7047AEDF7047B0DF704762DF704753
:106880002DE9F0470E4694B00546002800F0FC8044
:10689000002900F0F9804B68002B00F0F5804FF6DE
:1068A000FF7303800023ADF80A30784B04AA03F18C
:1068B000100C174618685968144603C4083363451A
:1068C0002246F7D141F230530DF10A013846ADF8B6
:1068D0000830FFF7D3FF0446002840F0D1802A1D7E
:1068E00002A90120FFF7C0FF0446002840F0C8803D
:1068F0009DF80A30AB7101461C220DA8FDF70EFD74
:106900009DF834300E9443F004038DF8343001AF19
:10691000AB798DF80E30214641F2325303223846CE
:10692000CDE91044CDE91244ADF80C30FDF7F6FC8A
:106930009DF8063023F01F0343F003032146142281
:106940004FF4885A08A88DF80630ADF804A00DF170
:106950000C08FDF7E3FC4FF01409A8880A9405F130
:10696000080308AA0DA90C94CDE90887ADF82C906E
:10697000FFF77CFF0446002840F0828001461C227D
:106980000DA8FDF7CBFC9DF834300E9423F01803CE
:1069900043F018038DF83430AB798DF80E30214672
:1069A00041F2315303223846CDE91044CDE9124477
:1069B000ADF80C30FDF7B2FC9DF80630ADF804A040
:1069C00023F01F0343F0130321464A4608A88DF81D
:1069D0000630FDF7A3FC1723ADF82C30A8880A94E5
:1069E00005F1100308AA0DA90C94CDE90887FFF75B
:1069F0003DFF0446002843D101461C220DA8FDF7A7
:106A00008DFC9DF834300E9443F002038DF8343041
:106A1000AB798DF80E30214641F2345303223846CB
:106A2000CDE91044CDE91244ADF80C30FDF776FC09
:106A30001123ADF804309DF8063023F01F0343F016
:106A4000030321464A4608A88DF80630FDF766FC88
:106A500002230A93ADF82C30A8880C9605F1200388
:106A600008AA0DA9CDE90887FFF700FF044638B949
:106A70007368AB62B36803B1EB62054B01221A7015
:106A8000204614B0BDE8F0870E24F9E793B70F0055
:106A9000C89A002070B5054686B070B302884FF6DC
:106AA000FF739A422BD0174B1B7843B3164C10221E
:106AB000080AE170207121FA02F0090E072301266D
:106AC0006071A17102A800216370ADF806302270D8
:106AD000A670FDF723FC2B8AADF808300023ADF833
:106AE0000C3028888DF80A600DF1060302A9CDE963
:106AF0000434FFF7BFFE06B070BD0E20FBE7082090
:106B0000F9E700BFC89A0020C99A002030B50446B2
:106B100087B060B302884FF6FF739A4229D0164BB4
:106B20001B7833B3154D11232B700B0A6970AB70B2
:106B30000B0C090EEB70297105230021102202A80D
:106B4000ADF80630FDF7EAFB238AADF808300123E3
:106B50008DF80A300023ADF80C3020880DF10603C3
:106B600002A9CDE90435FFF785FE07B030BD0E2040
:106B7000FBE70820F9E700BFC89A0020C99A002067
:106B800030B5044687B038B300884FF6FF7398429B
:106B900024D0134B1B780BB3124D102369700321C3
:106BA000ADF80610AA7000211A4602A82B70FDF756
:106BB000B5FB238AADF8083001238DF80A30002395
:106BC000ADF80C3020880DF1060302A9CDE904359B
:106BD000FFF750FE07B030BD0E20FBE70820F9E7B5
:106BE000C89A0020C99A002070B50D4688B00446A6
:106BF00050B149B1826A3AB10B88502B47D005D8C1
:106C0000102B41D0112B52D008B070BD512BFBD1AD
:106C10008E79022EF8D10A89038A9A42F4D18B7BAD
:106C2000043B022BF0D99DF816308DF8106043F02C
:106C300001038DF816300B8AADF818304B8AADF889
:106C40001A30082201F1140301A800210793FDF76F
:106C500065FBA18A2088019601AACDF808D0FFF72C
:106C600007FE38B3E36A03B1984740F2FD1320886A
:106C7000ADF8143004A9FFF7FFFD0028C4D0E36A83
:106C8000002BC1D09847BFE78B882380BCE7C98819
:106C900003899942B8D108238DF81030123535F8A0
:106CA000023C8DF81830059504A99047ACE74FF6E3
:106CB000FF73EAE79DF800302088DB07D5D5002672
:106CC00004A9ADF81460FFF7D7FD0028D7D1297DBE
:106CD0004B1E072B40D8DFE803F004192226282A90
:106CE0003D2C6B8A8DF80460012B05D8062201210A
:106CF0002046FFF745FFC0E7012315358DF80C301E
:106D00000295A36A01A9204698477DE76A8A012374
:106D10009A428DF80430F0D806220221E8E70223D7
:106D20008DF80430EDE70323FAE70423F8E70523A1
:106D3000F6E76B8A022B02D803220821D8E7AA7D46
:106D40006B7D43EA0223002BADF808300CBF07230C
:106D50000623E5E70923E3E70322C9E7A8DF704735
:106D6000AADF70472DE9F04180468EB015461F46D8
:106D70000E4611B9084600F09BFD15B9284600F0F3
:106D800097FD1C220DEB02000021FDF7C7FA9DF8CC
:106D90001C30ADF80480002443F002038DF81C3051
:106DA00021460123032268468DF80630CDE90A44C6
:106DB000CDE90C440894FDF7B1FA3B788DF800302A
:106DC0007B788DF801309DF8023023F01F0343F0EB
:106DD00002032146142202A88DF80230FDF79EFA24
:106DE0000A48CDF80CD001AB029302AA149B00888C
:106DF000ADF8105007A9ADF81240ADF81450069642
:106E0000FFF7AEFF0EB0BDE8F08100BFF09A0020A2
:106E100030B587B041F60A032B4AADF80C30044672
:106E200003A901208DF80E00FFF798FF0546D8B999
:106E30002288E2B922894AB1244B0093E16804F127
:106E40003C0342F62420FFF78DFFD8B9228C4AB1CB
:106E50001F4B0093616A04F13C0342F62620FFF7C2
:106E600081FF78B9A36B7BB9284607B030BD194BB9
:106E70000093616804F13C0342F62920FFF772FF9A
:106E80000028D7D00546EFE71A788DF810205A88E9
:106E90008DF81120120A8DF812209A88DB888DF85F
:106EA00015301B0A8DF813208DF81630120A0A4B84
:106EB0008DF814200093072204F13C0304A942F644
:106EC0005020FFF74FFFDDE7F09A0020E09A002006
:106ED000D09A0020D89A0020E89A002029DF704735
:106EE00028DF704723B502460846C9684368009307
:106EF000044B53F82150436910F80C1BA84702B00B
:106F000020BD00BFF49A002070B5194C23781822D8
:106F100002FB03431A795D69012A03D0032A1AD0C0
:106F20000F2070BD134AD86816689A689969A2EB59
:106F30000632B2F5805F284401EB063100EB0630E3
:106F400034BF92084FF48062FFF7C8FF0028E8D1F1
:106F50000123A370E5E74FF080531869054B1B68C8
:106F600080B2B5FBF0F01844FFF7BAFFEEE700BFC0
:106F7000049B0020FC9B002070B5134D6C780A2CFC
:106F80001FD02E783444E4B2092C84BF0A3CE4B20A
:106F9000182606FB0454A261207103C9A360049B58
:106FA000E360AB7804F1100282E8030023B1002013
:106FB0006B7801336B7070BDFFF7A6FF1128F7D116
:106FC000F5E70420F7E700BF049B0020F8B5274948
:106FD0008B780C462BB1002602288E7002D0032835
:106FE0003AD0F8BD0D78224A182101FB05411368FB
:106FF00089680133B1EB033F13601BD863781660D7
:10700000013B63706B1CDBB218270426092B17FBAE
:10701000056188BFA5F10903214400202370FFF713
:1070200061FF07FB05430022C3E904621A719A60FD
:107030009A61DA606378002BD3D0A378002BD0D18B
:10704000FFF762FF0028CCD01128CAD0217818237E
:1070500003FB0141043105E00B78182202FB031108
:1070600004310D20BDE8F840FFF73CBF049B002031
:10707000FC9B00200C4B00221A600C4B0A201A804B
:107080009A7004210138C3E904121A719A609A6156
:10709000DA6003F11803F5D1054B1860054BC3E91D
:1070A0000000C3E902007047FC9B0020049B002005
:1070B000F89B0020F49A0020064A03461068042832
:1070C00007D00860411C11601A68034B43F8202068
:1070D00000207047F89B0020F49A002013B5CC18CC
:1070E0000C43A40708D1009313460A460146012029
:1070F000FFF742FF02B010BD1020FBE707B50022EA
:107100000B46009201460320FFF736FF03B05DF8FF
:1071100004FB0000094A537891780133DBB29942AD
:1071200008BF0023117899421FBF037050781823BD
:1071300003FB002014BF043000207047009C002097
:10714000082910B5044602D0002000F0B1FBD4E9B4
:107150000030BDE81040184773B5054600240DF116
:1071600007000E468DF8074000F0B0FB0DF1060059
:10717000FFF7D0FF90B10670094B9DF806204560DF
:107180005A709DF8070000F0C5FB24B9054B4FF479
:107190008012C3F80021204602B070BD0424F0E73D
:1071A000009C002000E100E0204B21491A682F23B9
:1071B00000BF00BF00BF00BF00BF00BF00BF00BFD7
:1071C0008A422FD000BF00BF00BF00BF00BF00BF7A
:1071D00000BF00BF00BF00BF00BF00BF00BF00BFB7
:1071E00000BF00BF00BF00BF00BF00BF00BF00BFA7
:1071F00000BF00BF00BF00BF00BF00BF00BF00BF97
:1072000000BF00BF00BF00BF00BF00BF00BF00BF86
:1072100000BF00BF00BF00BF00BF00BF00BF00BF76
:1072200000BF00BF013BC3D1704700BF34840020C2
:107230000024F4000C4B0D484FF4003210B5C3F895
:10724000802001244FF48033C0F84833C0F808335D
:107250004460FFF7A9FF064B846000201860FFF729
:10726000A3FF044B187010BD00E100E000100140C6
:107270001C9D00200D9D00202DE9F3412549264B42
:107280000025C1F84051C1F84451C1F84851C1F836
:107290004C51C1F80051C1F804511B68002B34D087
:1072A000D1F804451D49DFF888800968641A24F084
:1072B0007F442F461968A14212D81A7CDE69641AED
:1072C0000D4462B15A691F7400929B690193424652
:1072D0000821684600F056FA08B100F0E9FABEB994
:1072E0000F4A104B11781B788B4205D10133DBB26A
:1072F000022B08BF0023137012780B4B43F8225067
:107300000A4B4FF48012C3F8002102B0BDE8F081AF
:107310003346CFE700100140209D00201C9D002037
:10732000199D0020189D0020109D002000E100E024
:1073300041710F002DE9F74FA84AA9491378097840
:10734000A84C99423BD00133DBB2022B08BF00238B
:107350001370A5491278A54B0F6853F822003B180B
:1073600023F07F4300220B6023681546164694469F
:1073700013B942B1236006E0196881420DD902B108
:107380002360091A196001262368DFF868920093C8
:107390000027BDB9DFF868A267E0401A0E44D9683B
:1073A000D3F81CE0C3F800C031B1BA1922F07F4213
:1073B000C3E90121DD611D4673460122D8E700259E
:1073C0002E46E1E72846ED69874A43681268DFF8F0
:1073D00034E2D0F808C0991A21F07F41714500F2DB
:1073E000AD80614401600122027422680023C0E97B
:1073F0000133C361002A40F0AB802060C9E75A1C0A
:107400009AF80210D4F800B0D2B291428AF8002063
:1074100004BF00228AF80020182202FB03A31A7975
:107420009868022A77D0032A00F08580012A1CD1AF
:1074300090F810C0BCF1000F17D1D96841601A69EB
:1074400082605A69C2609B698361694B1B78002B1B
:1074500018BF61464160B7E7904200F09E809046B9
:10746000D269002AF8D1002303749AF800309AF800
:1074700001209A42C3D1236827B9009A9A4201D1C8
:10748000002E42D0002B00F08580D3F80090594C9C
:10749000554BD4F804651868574F351A3B7825F0DA
:1074A0007F4503359BB94FF48033C4F84433C4F8A7
:1074B0000433524B4FF400324FF00108C3F88021DF
:1074C0001A60C4F80080FFF76FFE87F80080A945B6
:1074D0002CBF4844401920F07F40C4F84005D4F840
:1074E00004359B1B23F07F43801B033320F07F4038
:1074F00083420AD9D4F80435C4F84035FFF754FE66
:107500003E4B4FF40032C3F80021394B00221A7071
:1075100003B0BDE8F08F5A46D846A2E78BF810209A
:10752000DBF81CB00123BBF1000FF7D1002B9CD07E
:10753000C4F800B099E700231A46F4E7D31A23F001
:107540007F43634534BFACEB0303002303604AE78A
:107550000168136899421BD8591A1160C2614CE73F
:10756000A1EB0C01D3F81CC01A46BCF1000F0AD0E5
:107570006346D3F800C08C45F2D3ACEB010CC3F8E2
:1075800000C09C4613460160C0F81CC0D86100E7EB
:107590001346EEE7FFF74EFEB7E7404510D1DBF8A4
:1075A0001C30236063B9DFF840E001920121C9F883
:1075B0000810CEF800300E4B1970FFF7F5FD019A58
:1075C0001368D269C8F81C2012B111680B4413600B
:1075D00023685B4518BF012745E700BF189D0020C1
:1075E000199D0020209D00201C9D0020109D002042
:1075F0000C9D0020001001400D9D002000E100E0E6
:10760000009C0020FEFF7F0008B5FFF713FE104B23
:1076100000200B2218809A700E4B18600E4B1870C9
:107620000E4B18700E4B4FF48012E021C3F88021EE
:1076300083F814131A6002F18042A2F56F22C2F897
:10764000080583F81113074BD2F804251A6008BD0A
:10765000009C0020209D0020189D0020199D0020E6
:1076600000E100E01C9D0020074B9B784BB132B13C
:1076700028B10368187C20B959745A6170470720F3
:1076800070470820704700BF009C00202DE9F74399
:10769000DFF8848098F8023005460E461746ABB3F3
:1076A000A0B3042930D9436983B3437C0024012B60
:1076B0000DF107000CBF8946A1468DF8074000F088
:1076C00005F90DF10600FFF725FDD8B10123037080
:1076D0000F4B4560D3F80435C0E90497C0E9023682
:1076E0009DF8063088F801309DF8070000F012F987
:1076F00024B9084B4FF48012C3F80021204603B090
:10770000BDE8F0830424EFE70724F7E70824F5E752
:107710000010014000E100E0009C0020064A927841
:107720003AB130B1426922B1002202740221FFF75E
:1077300013BD0820704700BF009C00204B1C30B5D3
:10774000DB00044612F003009BB20DD1074D2A6006
:107750001A44074B1A60074B1870074B1870074BF9
:107760001C80074B198030BD0720FCE72C9D0020B2
:10777000289D0020249D0020349D0020309D002065
:10778000329D00202DE9F3472B4F3B888B42064664
:107790000D4690464BD300240DF107008DF80740AD
:1077A00000F094F8254B26481A78264B008893F869
:1077B00000C084455FFA8CF138BF4C1CD2B238BF90
:1077C000E4B2A2422DD01C781A78D1B2904286BF82
:1077D0000131C9B2002119709DF8070000F09AF834
:1077E0004FF6FF739C4224D0DFF86090D9F8002058
:1077F0004FEAC40A42F8348002EBC403A6B19DB13B
:10780000114B38881B682A4604FB0030314603F0D0
:1078100075FDD9F80030534400209D8002B0BDE8CA
:10782000F0874FF6FF74D7E700209880F6E709202D
:10783000F4E70420F2E700BF309D0020349D0020D3
:10784000329D0020249D0020289D00202C9D00209A
:10785000F8B5114C114D264622782B789A4200D16A
:10786000F8BD0F480F4A2378126807880E4802EBCC
:10787000C301006852F83320898803FB0700904752
:107880000A4922780988D3B2914286BF0133DBB21C
:1078900000233370E0E700BF349D0020249D0020CA
:1078A000309D00202C9D0020289D0020329D00202E
:1078B0001FB50021CDE9021001AA44F20100ADF884
:1078C0000410FCF76BFF05B05DF804FB70B5EFF337
:1078D000108672B60C4A946801239CB993600B4BD6
:1078E0000B4DD3F8801029401160C3F88050D3F8B5
:1078F000841051604FF0FF32C3F88420047006B941
:1079000062B670BD0370FAE7F0CD002000E100E040
:10791000FC06FFBD10B5084B9A685AB150B9EFF399
:10792000108172B6054A1C6814605C6854609860E7
:1079300001B962B610BD00BFF0CD002000E100E04B
:1079400010B5044622B1108821448C4203D110BDE9
:107950004FF6FF70F8E743BA14F8010B9BB24340AF
:10796000C3F30312534083EA03335A0102F4FF5274
:107970009BB283EA0200E8E7064B074A0020187032
:10798000064B1A600822C3E90120C3E90300C3E9DA
:1079900005007047359D0020389D002018B000205C
:1079A0000020704730B5F9B1124B5C6800220A60C4
:1079B000E4B1B0F5167F1BD8D8681D680130013CD2
:1079C000D86018695C604FF4177404FB00540C60B5
:1079D000012101FA00F49969013000F00700214308
:1079E00018619961104630BD0E20FCE70420FAE7CB
:1079F0000C20F8E718B00020F0B51C4B996899B33B
:107A00005D691E686C1A04F0070422464FF417776C
:107A100007FB026C604511D1012000FA02F598695C
:107A20006840986100205E68D3F818C04FF0010EDE
:107A3000724400250E4402F007020AE0013202F00F
:107A400007029542E4D11020EDE749B1013914460F
:107A500001250EFA04F414EA0C0FA6EB0107F4D08A
:107A60000DB1C3E90171F0BD0420FCE718B000209E
:107A7000064A13691268013B4FF4177103F00703BC
:107A800001FB0323C3F858020020704718B0002000
:107A900030B5C0B1B9B10E4BDA68B2B1013ADA60B3
:107AA0009A681D6801329A605A694FF4177404FB92
:107AB000025404600132D4F85802086002F0070250
:107AC0005A61002030BD0E20FCE70420FAE700BF19
:107AD00018B000203FB40C49086890B10B4B1C68EB
:107AE0007CB10B4A1568CDE9025000238DF80430B3
:107AF0000B60136004AB13E90700234604B030BCED
:107B0000184704B030BC70473CB0002040B00020A3
:107B10004CB00020DC2810B509D0DD2810D0C028DA
:107B200016D1FFF7D7FF0E4B0E4A1A6010BD0E4A52
:107B30000E4B19681368581C1060C022CA54F2E733
:107B4000094A0A4B19681368581C1060DB22F5E7D4
:107B5000064B054A196813685C1CC8541460E2E7B8
:107B600040840020857B0F003CB000204CB00020FA
:107B7000C02802BF014B024A1A60704740840020AF
:107B8000857B0F00C02810B409D0DB280BD0094B2F
:107B9000094A196813685C1CC854146006E05DF853
:107BA000044BFFF797BF054B054A1A605DF8044B7D
:107BB000704700BF4CB000203CB000204084002043
:107BC000157B0F0007B501228DF807000DF10701A5
:107BD000002002F083FD00280CBF0420002003B029
:107BE0005DF804FB10B5064A064C12682368D05CA9
:107BF000FFF7E8FF10B923680133236010BD00BF11
:107C000050B0002044B0002008B5C020FFF7DAFFD4
:107C100028B9034B1B6813B9024B034A1A6008BD0D
:107C200044B0002044840020E57B0F0008B5DB2031
:107C3000FFF7C8FF10B9024B024A1A6008BD00BF27
:107C400044840020497C0F0010B50C4A0C4C12688B
:107C50002368D35CC02B03D0DB2B0DD0042010BDD8
:107C6000DC20FFF7AFFF0028F9D12368054A013374
:107C70002360054B1A60F2E7DD20F2E750B00020E8
:107C800044B00020E57B0F00448400207FB5164CF3
:107C9000164D174E002002F0C1FC18B322689AB1AD
:107CA0002968336899420FD2012201A9002002F00D
:107CB000C1FC10B94FF0FF3001E09DF804000D4BFE
:107CC000C0B21B689847E5E70B4B1B6853B10292A3
:107CD000064A0221126803928DF8041004AA12E9E0
:107CE0000700984704B070BD4CB000203CB00020A5
:107CF00038B000204084002040B00020014B1860C4
:107D00000020704740B00020034B1A780AB90122C6
:107D10001A700020704700BF34B00020014B0020D3
:107D20001870704734B000202DE9F04F85B000285E
:107D30004FD0294F3B78012B07D0022B14BF0824CA
:107D40000424204605B0BDE8F08F244D244A254E7A
:107D5000254CDFF8A0A0DFF8A0B0116000232B6055
:107D600002233B70214B30602360914698462A687D
:107D7000D9F800309A4215D3C4F80080FFF744FFC9
:107D8000044608BB1A4B1B6801223A70E3B18DF818
:107D90000420326802922A68039204AA12E90700BA
:107DA0009847CEE733682A689A5CC02A03D02A68CD
:107DB0009B5CDB2B04D12368534508BFC4F800B09B
:107DC00023689847042801D10024BAE71128CED1AE
:107DD000FAE71024B5E700BF34B0002044B000201B
:107DE00048B0002050B0002044840020097C0F00DF
:107DF00040B00020E57B0F002D7C0F00054B064AAC
:107E00001860064B1960064B00201860054B1A607D
:107E1000704700BF4CB00020717B0F0038B00020CD
:107E20003CB0002040840020064B07481B68DB0064
:107E3000DBB20022037004215B4242708270C37087
:107E4000FFF772BF7CB0002054B0002070B52C4CFE
:107E50002C4E024625462378012B14D0022B21D02C
:107E6000002B4CD1002A4AD12748FFF757FC08B114
:107E7000FFF71EFD254B1B68002B40D0244ABDE8B0
:107E8000704010781847012A39D13168214B0631EA
:107E90001868FFF749FF08B1FFF70AFD02232B70AE
:107EA0000022D8E7022A17D0032A0CD03ABB1A4B7B
:107EB00015481A6041F67F21FFF7E8FBF8B1BDE8ED
:107EC0007040FFF7F5BC154A1368013303F0070350
:107ED000136000232370E3E70F4A1368052B0AD0D1
:107EE00001331360074B19680A4BBDE870401868EE
:107EF0000631FFF719BF064B01221A70E9E770BD82
:107F0000A0B0002094B0002058B0002090B0002015
:107F100098B00020A8B000209CB0002080B00020C5
:107F2000F0B585B004AB03E907009DF80400032811
:107F300078D8DFE800F00802A7AA012005B0BDE864
:107F4000F040FFF783BF039E564C032E40F286801D
:107F5000029D6B7813F00F0269D00E2A7ED1042E99
:107F600059D02A78500656D5110654D51A44AB7804
:107F70001A44EB781A4412F0FF024CD1B71E39466E
:107F80002846FFF7DDFCEB195A78EB5D43EA022344
:107F9000984240D144492A780B6802F00702D8B2CF
:107FA00082422BD1013303F007030B60FFF73CFF44
:107FB0003E4B012230461A70FFF75AFD08B1FFF719
:107FC00077FC38494FF41670FFF7ECFC002862D0BC
:107FD000042802D00020FFF76BFC35480521FFF78D
:107FE0000DFF08B1FFF764FC324B1B68002B56D025
:107FF0004FF0000005B0BDE8F040184720684FF48E
:108000001671FFF7FBFE08B1FFF752FC05B0BDE8A3
:10801000F040FFF709BF20684FF41671FFF7EEFE3E
:1080200000283CD005B0BDE8F040FFF741BC2978FE
:10803000AA780B441344EA78134413F0FF030DD1DC
:108040001D4A12680132C1F3C20102F007029142D7
:1080500004D11A4A03201370FFF7F8FE25681DB1FA
:108060004FF416712846D9E70E494FF41670FFF702
:1080700099FC60B1042802D02846FFF719FC0C488F
:108080000521CBE70A480521C8E70320CAE7206895
:108090004FF41671C2E720684FF416719FE705B0E0
:1080A000F0BD00BFA4B000207CB0002078B000205C
:1080B00084B000208CB0002080B0002098B0002058
:1080C0000220FFF7C3BE0000074B10B5044618603E
:1080D0000648FFF713FE08B1FFF7EAFB002C0CBFC0
:1080E0000E20002010BD00BF8CB00020217F0F00AB
:1080F000184A1948002310B51360184A1360184A2B
:108100001360184A1370184A1370184B184A01214B
:108110001960184B1960184B1970FFF7A5FA08B1D0
:10812000032010BDFFF728FC0028FAD1FFF7ECFD73
:108130000028F6D1114C4FF416702146FFF732FC9F
:108140000028EDD120684FF41671BDE81040FFF70C
:1081500055BE00BFA8B00020A4B70F0094B0002007
:108160009CB0002078B00020A0B000207CB000209F
:10817000C1800F0080B0002098B00020A4B0002083
:108180000C4A08B5002313600B4A1360FFF708FC84
:1081900008B1FFF78DFBFFF7C1FD08B1FFF788FBC2
:1081A0000648FFF7BBFA042802D10020FFF780FB46
:1081B000002008BD90B000208CB0002058B00020F6
:1081C00037B50D46044698B191B10A4B1978002293
:1081D000019259B101A91A70FFF75AFC019B063BA5
:1081E0002B8023680433236003B030BD0420FBE7F9
:1081F0000E20F9E778B000200438FFF7FDBB18DF48
:1082000070470000F0B51D46154B87B018680F4643
:1082100059681B7A03AC03C42370124B1868596861
:10822000114B009301AC03C403A8164603F09DF85C
:1082300003A90246384603F061F801A803F095F857
:1082400001A90246304603F059F8684603F08DF85C
:1082500069460246284603F051F807B0F0BD00BF5A
:10826000A8B70F00B1B70F00312E300001207047C2
:1082700010B51C460B781E2B0AD0002320220521A6
:1082800002F07AFC4FF6FF70A04228BF204610BDD6
:108290000020F9E7F8B5069F14460D463A4600213E
:1082A00018461E46FCF73AF86CB10A4B1B68DB0710
:1082B00000D500BE4FF0FF300AE0284600F000FA7B
:1082C000013504F50074BC4206EB0401F5D32046E9
:1082D000F8BD00BFF0ED00E0F8B50A4F0D461E46B0
:1082E0000024069B9C4206EB040101D32046F8BD06
:1082F0003A46284600F0BAFA0028F7D0013504F5CE
:108300000074EEE7ACB0002030B5284C227A8DB076
:108310009AB107AC142200212046FBF7FFFF062587
:108320000B9B8DF81C50009394E80F00FCF7D6FFD0
:108330000620FCF703FD0DB030BD2368002BFAD0FA
:108340001B4B197819B105201A70FCF7F7FCD4E91A
:1083500000329A42EFD307AD142200212846FBF7E2
:10836000DDFF637AF3B106234FF420424FF474210A
:108370004FF460208DF81C3002F0B2FF68B110227B
:10838000002103A8FBF7CAFF4FF460224FF42053EB
:1083900003A8CDE90423FFF732FF0B9B009395E878
:1083A0000F00C3E78DF81C30F7E700BFACB000202A
:1083B00048840020024B0B604FF400731380704719
:1083C000090101000120704700487047F684002031
:1083D000044B054A1878054B002814BF1046184670
:1083E000704700BFC8B20020AB8400204984002041
:1083F0002DE9F0431F4B85B0187020B11E4B0522AC
:108400009A727A22DA721D4A1D4D1E4F16461E4B75
:10841000EE4603F110097446CC4618685968F046D8
:10842000A8E8030008334B45C646F6D12B7804A9CB
:1084300003F00F030B4413F8103CD373124B18686E
:108440005968A646AEE80300083363457446F6D182
:1084500015F8013B04A901EB1313BD4213F8103CBE
:108460009373A2F10202D2D10023337405B0BDE8A8
:10847000F08300BFC8B20020F68400204CB3002077
:108480006000001068000010B9B70F0010B568B99F
:10849000134B14481968022202F030FF0123013304
:1084A00011485B0043F44073038010BD052814D8C5
:1084B0000B4B53F82040204602F057FFC3B21F2B4E
:1084C00028BF1F23084A2046E118884202F1020211
:1084D000E5D010F8014B1480F7E70020E5E700BF76
:1084E00008850020CCB20020CAB200204DDF7047C2
:1084F0004EDF70474FDF704750DF704712DF704725
:1085000000F0CABE002000F037BD00001FB5244BAC
:10851000402283F8272300238DF8073043F2040319
:1085200004461A681F4B9A4227D10DF10700FFF746
:10853000E5FF9DF8073003B30120FFF7D9FF0120C5
:10854000FFF7D4FF0120FFF7D5FF02A8FFF7D4FF04
:10855000029BDA0702D5002000F09EFE029B9B07DB
:1085600002D5022000F098FE2046FFF741FF00F000
:1085700027F802F045FE04B010BD002301A88DF8D5
:108580000430FCF727FC084B039303A8FCF74AFCD4
:10859000FCF74EFC4FF08043D3F838340293D7E712
:1085A00000E100E0DBE5B15101850F00012000F0A2
:1085B00073BE0120FCF7C2BB0220FCF7BFBB00006A
:1085C0007FB52F492F4802F0C1FE43F204031A6819
:1085D0002D4B9A4252D14FF440531B78102B4AD95D
:1085E00043F21002142B106846D943F214031B689F
:1085F000264CB3FBF4F50A2201A904FB153402F062
:10860000FFFE23491F4802F0A1FE01A91D4802F008
:108610009DFE20491B4802F099FE0A2201A9284626
:1086200002F0EEFE01A9174802F090FE1A49154823
:1086300002F08CFE4FF47A760A2201A9B4FBF6F51B
:10864000284602F0DDFE01A90E4802F07FFE124925
:108650000C4802F07BFE0A2201A906FB154002F03D
:10866000CFFE01A9074802F071FE0C49054802F04F
:108670006DFE04B070BD00200023B9E70849F5E79E
:10868000D7B70F0020850020DBE5B15140420F0035
:10869000E4B70F00E2B70F00E6B70F00F1B70F0025
:1086A000E8B70F0010B50023934200DB10BD0C7833
:1086B0001CB10131C4540133F6E72024FAE700006D
:1086C0002DE9F3410C4605464FF400720021204687
:1086D000FBF724FE6DB95E493E22204602F00EFEF5
:1086E000552384F8FE31AA2384F8FF3102B0BDE897
:1086F000F081B5F5017F2DD8691EB1F5817F24BFCA
:108700006FF4817805EB0801C9B10B02C1EBC151CF
:1087100003F5807004EB412440F693651A1FB2F50F
:10872000696F03F1010206D2AB4214BF91B24FF65A
:10873000FF7124F8131090421346EFD1D6E7F823C7
:10874000237004F109022346FF2003F8010F93422E
:10875000FBD1DAE7B5F5027F3BD86FF4017C6544C5
:108760003DB920463B490B22FFF79CFF2823E372CB
:10877000203439492E014FF0640801EB052500270C
:10878000022EB3D80B2229462046FFF78BFF5A232F
:108790007B206FF07B026FF047016374E3746376B4
:1087A000B31C84F80D80A073E1732274A274277542
:1087B0006775A075E17522766383E86830B102F0D1
:1087C000D4FDE061013620341035D9E74FF4E910CB
:1087D000F7E7224B9D4289D86FF40277EA19012A04
:1087E0000FD81D4B03EB0213D9680191084602F024
:1087F000BCFD01990246204602B0BDE8F04102F0FE
:108800007DBD6FF4FD76A9190902B1F5801FBFF493
:108810006DAF134B236003F1144303F52C1303F6E0
:10882000023363600F4BC4F8FC314FF46963A361FA
:108830004FF40053A5F20B254FF48072A3600A4B4E
:108840006561E1602261E36104F12000D4E700BFCB
:10885000F4B70F001FB80F00B0B80F0008010100F7
:108860005546320A306FB10A057A0912F7B5654BE1
:1088700014460A689A420D4639D103F114434A68F6
:1088800003F52C1303F602339A4230D1D1F8FC21C0
:108890005D4B9A422BD18B6823F4FF5323F01E03C8
:1088A0009B049B0CB3F5005F21D10B69B3F5807F6E
:1088B0001DD1C86810F0FF0619D1CB69534A934205
:1088C00005D0534A934215D0524A93420FD1A0F596
:1088D0008053B3F5692F07D201234FF4807205F15D
:1088E0002001FBF703FF22E0B0F5805F1FD34FF0BC
:1088F000FF3021E001276772CB68B3F1102F1DD143
:1089000004223431684602F0F9FC042205F13801F2
:108910000DEB020002F0F2FC009BB3F5742F03D1C3
:10892000019BB3F57E2F01D02772E0E7A772AB69F8
:10893000002B37D14FF4007003B0F0BDA3F57422C3
:10894000B2F5204F28D2E27A01F12007DAB9324A93
:10895000934218D32B69B34215D90422B91968463A
:1089600002F0CCFC009BD02B14D10422311D0DEB66
:108970000200394402F0C2FC264B019A9A424FF0A1
:1089800001030DD1E372E8682A6901233946A0F595
:10899000A030A6E70836DDE7B3F5805FC7D3012333
:1089A0002372A4E72268934207D041F263018B420D
:1089B00000D80AB14FF0FF3323606B6941F26302C4
:1089C0009342B7D803F0070204EBD303012191408F
:1089D0001A7B1142C8B204D16168024301311A7393
:1089E0006160D4E900329A42A4D30120FBF760FE13
:1089F000637A002B9ED0A37A002B9BD10123237294
:108A000098E700BF5546320A306FB10A4028A5AD3D
:108A10003C8263D6057A091200D80F00064B18680D
:108A2000082802D104331B6823B9A0F10D03584272
:108A3000584170470120704730010010094B012256
:108A400083F8D8200260BFF36F8FBFF34F8F064AC1
:108A5000904202D0043A904202D1002283F8D820FA
:108A6000704700BF60B300205070024042DF704783
:108A700043DF704744DF704712DF704707B543F2AA
:108A8000040300201A68084B9A420AD18DF80700A7
:108A90000DF10700FFF7F0FF9DF80700003818BF41
:108AA000012003B05DF804FBDBE5B15107B5FFF72A
:108AB000E5FF58B1002301A80193FFF7DBFF019800
:108AC000003818BF012003B05DF804FB4FF080436D
:108AD000D3F80C0400F00110A0F1011358425841E2
:108AE000F1E7000038B5144B144A5B68C3F3080380
:108AF0007BB9EFF3108363B9114C63681B0608D58B
:108B000080210B46C4F8843092F8D8507DB1616062
:108B1000F8E792F8D83033B10146BDE8384009484B
:108B2000012201F04DB8BDE83840FFF787BFFFF7DD
:108B300085FF616038BD00BF00ED00E060B300203C
:108B400000E100E0E58A0F000D4A182303FB002333
:108B5000598A1A8A521A998A92B28A4228BF0A46B8
:108B6000D9681423434303F1804303F51C33C3F84E
:108B70000016C3F80426034B03EB8000FFF7B2BFD7
:108B800060B3002004700240074BD3F8C024D10327
:108B900009D406490648D1F8C010C3F8A017C3F895
:108BA000A427FFF79FBF70470070024060B300200A
:108BB000487002400828F0B402D1F0BCFFF7E4BFCF
:108BC0000F4A104D18214143561800F5947351581F
:108BD00055F82340F788B388DB1B9BB2A4B214225C
:108BE00002FB0052A34228BF2346C2F80017C2F876
:108BF0000437054BF0BC03EB8000FFF773BF00BFE9
:108C000060B30020007002402870024070470000EE
:108C1000014B80225A60704700E100E0024B802245
:108C2000C3F88420704700BF00E100E0074BD3F891
:108C30000014D3F800240A43C3F800240022C3F828
:108C400058214FF48002C3F804237047007002409B
:108C500070B58878404D182200F07F0302FB03F6C0
:108C6000C4090C2202FB04628E882A44C6F30A0659
:108C70001681CA7802F00302012A29D00121374A5D
:108C800001FA03F5D4B903F10C06B140C2F804139C
:108C9000D2F8141503F594732943C2F8141542F859
:108CA00023402E4BC3F8180540F48070C3F80C0520
:108CB000BFF36F8FBFF34F8F012012E00233994053
:108CC000C2F80413D2F810352B43C2F81035E8E788
:108CD000082B07D0224B186810F0010001D000BE0D
:108CE000002070BD1D4BDCB9B5F8D42012B1802234
:108CF000C3F81C250022C3F85021D3F8002312F436
:108D0000001208BFC3F85421144B4FF44012C3F8AB
:108D10000423D3F8142542F48072C3F81425C0E765
:108D20000022C3F82C21B5F8C82012B18022C3F864
:108D30001C250A4BD3F8002312F4001208BFC3F815
:108D40005421084AC3F80423D3F8102542F4807252
:108D5000C3F81025A5E700BF60B3002000700240F3
:108D6000F0ED00E0000820001D4B2DE9F0418022CD
:108D700001241C4DDFF87880C3F88420274604F1D5
:108D80000C03A21C07FA02F207FA03F31343C5F817
:108D90000833A30003F1804303F51C330026182297
:108DA00002FB04805E6031469E620134FBF7B6FA36
:108DB000082C4FF01802E2D10B4BC5F808330B48D2
:108DC000C5F81C6531466E62AE64FBF7A7FA044B2A
:108DD000C5F814758022C5F810755A60BDE8F08199
:108DE00000E100E0007002400008300020B40020E4
:108DF00060B30020F7B51F4601F07F0018231F4C19
:108E0000CD090E4643430C2101FB053104EB010C57
:108E100062500022ACF80470ACF8062018B1F5B12D
:108E2000FFF792FE18E017BB154BD3F88034C3F35D
:108E3000C0139D421BD01348FFF754FE124B5B68D2
:108E4000C3F30803003B18BF012300933A463B4697
:108E50003146384600F09FFE012003B0F0BD1C44AF
:108E6000A37A002BF8D0A572FFF7A4FEF4E7002D3B
:108E7000D6D10648FFF736FEEEE700BF60B300200C
:108E8000007002405070024000ED00E04C70024063
:108E900011F07F0008B507D10D4B01225A65BFF3D1
:108EA0006F8FBFF34F8F08BD0828F8D0084B41F4EF
:108EB0008072C909C3F81825F1D1064A182303FBAB
:108EC00000239A7A002AEAD09972FFF773FEE6E748
:108ED0000070024060B3002011F0770F12D00A4BEF
:108EE00041F48072C3F80C15C3F80C25CA09C3F805
:108EF000181504BF01F5947143F82120BFF36F8F5B
:108F0000BFF34F8F704700BF00700240174B012224
:108F1000002110B5C3F81425C3F810250A468B00AC
:108F200003F1804303F51C33013108295A609A622A
:108F3000F5D10E4B0E4C5A629A64C3F85821D3F8FF
:108F40000014D3F800240A43C3F80024D3F8002304
:108F5000C3F80823074AC3F804230021DC22204673
:108F6000FBF7DCF94023A382238110BD007002408F
:108F700060B300200514C0012DE9F04FB84BB94A89
:108F8000D3F80013002385B01C4601201D4621FAAA
:108F900003F6F6070BD552F8236046B100FA03F644
:108FA000344342F82350BFF36F8FBFF34F8F013329
:108FB000192BECD1E20706D5FFF7A8FF002101220B
:108FC000084600F0BFFD14F4006FA74D08D0A44B75
